{
  "abi": [
    {
      "inputs": [],
      "stateMutability": "nonpayable",
      "type": "constructor"
    },
    {
      "anonymous": false,
      "inputs": [
        {
          "indexed": true,
          "internalType": "address",
          "name": "owner",
          "type": "address"
        },
        {
          "indexed": true,
          "internalType": "address",
          "name": "spender",
          "type": "address"
        },
        {
          "indexed": false,
          "internalType": "uint256",
          "name": "value",
          "type": "uint256"
        }
      ],
      "name": "Approval",
      "type": "event"
    },
    {
      "anonymous": false,
      "inputs": [
        {
          "indexed": true,
          "internalType": "address",
          "name": "previousOwner",
          "type": "address"
        },
        {
          "indexed": true,
          "internalType": "address",
          "name": "newOwner",
          "type": "address"
        }
      ],
      "name": "OwnershipTransferred",
      "type": "event"
    },
    {
      "anonymous": false,
      "inputs": [
        {
          "indexed": true,
          "internalType": "address",
          "name": "from",
          "type": "address"
        },
        {
          "indexed": true,
          "internalType": "address",
          "name": "to",
          "type": "address"
        },
        {
          "indexed": false,
          "internalType": "uint256",
          "name": "value",
          "type": "uint256"
        }
      ],
      "name": "Transfer",
      "type": "event"
    },
    {
      "inputs": [],
      "name": "DENOMINATOR",
      "outputs": [
        {
          "internalType": "uint256",
          "name": "",
          "type": "uint256"
        }
      ],
      "stateMutability": "view",
      "type": "function"
    },
    {
      "inputs": [],
      "name": "TAX_FEE",
      "outputs": [
        {
          "internalType": "uint256",
          "name": "",
          "type": "uint256"
        }
      ],
      "stateMutability": "view",
      "type": "function"
    },
    {
      "inputs": [
        {
          "internalType": "address",
          "name": "owner",
          "type": "address"
        },
        {
          "internalType": "address",
          "name": "spender",
          "type": "address"
        }
      ],
      "name": "allowance",
      "outputs": [
        {
          "internalType": "uint256",
          "name": "",
          "type": "uint256"
        }
      ],
      "stateMutability": "view",
      "type": "function"
    },
    {
      "inputs": [
        {
          "internalType": "address",
          "name": "spender",
          "type": "address"
        },
        {
          "internalType": "uint256",
          "name": "amount",
          "type": "uint256"
        }
      ],
      "name": "approve",
      "outputs": [
        {
          "internalType": "bool",
          "name": "",
          "type": "bool"
        }
      ],
      "stateMutability": "nonpayable",
      "type": "function"
    },
    {
      "inputs": [
        {
          "internalType": "address",
          "name": "account",
          "type": "address"
        }
      ],
      "name": "balanceOf",
      "outputs": [
        {
          "internalType": "uint256",
          "name": "",
          "type": "uint256"
        }
      ],
      "stateMutability": "view",
      "type": "function"
    },
    {
      "inputs": [],
      "name": "decimals",
      "outputs": [
        {
          "internalType": "uint8",
          "name": "",
          "type": "uint8"
        }
      ],
      "stateMutability": "pure",
      "type": "function"
    },
    {
      "inputs": [
        {
          "internalType": "address",
          "name": "spender",
          "type": "address"
        },
        {
          "internalType": "uint256",
          "name": "subtractedValue",
          "type": "uint256"
        }
      ],
      "name": "decreaseAllowance",
      "outputs": [
        {
          "internalType": "bool",
          "name": "",
          "type": "bool"
        }
      ],
      "stateMutability": "nonpayable",
      "type": "function"
    },
    {
      "inputs": [
        {
          "internalType": "address",
          "name": "account",
          "type": "address"
        }
      ],
      "name": "excludeAccount",
      "outputs": [],
      "stateMutability": "nonpayable",
      "type": "function"
    },
    {
      "inputs": [],
      "name": "getEarningFactor",
      "outputs": [
        {
          "internalType": "uint256",
          "name": "",
          "type": "uint256"
        }
      ],
      "stateMutability": "view",
      "type": "function"
    },
    {
      "inputs": [],
      "name": "getEffectiveTotal",
      "outputs": [
        {
          "internalType": "uint256",
          "name": "",
          "type": "uint256"
        }
      ],
      "stateMutability": "view",
      "type": "function"
    },
    {
      "inputs": [
        {
          "internalType": "address",
          "name": "account",
          "type": "address"
        }
      ],
      "name": "getSnapshot",
      "outputs": [
        {
          "internalType": "uint256",
          "name": "",
          "type": "uint256"
        }
      ],
      "stateMutability": "view",
      "type": "function"
    },
    {
      "inputs": [
        {
          "internalType": "address",
          "name": "account",
          "type": "address"
        }
      ],
      "name": "includeAccount",
      "outputs": [],
      "stateMutability": "nonpayable",
      "type": "function"
    },
    {
      "inputs": [
        {
          "internalType": "address",
          "name": "spender",
          "type": "address"
        },
        {
          "internalType": "uint256",
          "name": "addedValue",
          "type": "uint256"
        }
      ],
      "name": "increaseAllowance",
      "outputs": [
        {
          "internalType": "bool",
          "name": "",
          "type": "bool"
        }
      ],
      "stateMutability": "nonpayable",
      "type": "function"
    },
    {
      "inputs": [],
      "name": "name",
      "outputs": [
        {
          "internalType": "string",
          "name": "",
          "type": "string"
        }
      ],
      "stateMutability": "view",
      "type": "function"
    },
    {
      "inputs": [],
      "name": "owner",
      "outputs": [
        {
          "internalType": "address",
          "name": "",
          "type": "address"
        }
      ],
      "stateMutability": "view",
      "type": "function"
    },
    {
      "inputs": [],
      "name": "renounceOwnership",
      "outputs": [],
      "stateMutability": "nonpayable",
      "type": "function"
    },
    {
      "inputs": [],
      "name": "symbol",
      "outputs": [
        {
          "internalType": "string",
          "name": "",
          "type": "string"
        }
      ],
      "stateMutability": "view",
      "type": "function"
    },
    {
      "inputs": [],
      "name": "totalSupply",
      "outputs": [
        {
          "internalType": "uint256",
          "name": "",
          "type": "uint256"
        }
      ],
      "stateMutability": "view",
      "type": "function"
    },
    {
      "inputs": [
        {
          "internalType": "address",
          "name": "recipient",
          "type": "address"
        },
        {
          "internalType": "uint256",
          "name": "amount",
          "type": "uint256"
        }
      ],
      "name": "transfer",
      "outputs": [
        {
          "internalType": "bool",
          "name": "",
          "type": "bool"
        }
      ],
      "stateMutability": "nonpayable",
      "type": "function"
    },
    {
      "inputs": [
        {
          "internalType": "address",
          "name": "sender",
          "type": "address"
        },
        {
          "internalType": "address",
          "name": "recipient",
          "type": "address"
        },
        {
          "internalType": "uint256",
          "name": "amount",
          "type": "uint256"
        }
      ],
      "name": "transferFrom",
      "outputs": [
        {
          "internalType": "bool",
          "name": "",
          "type": "bool"
        }
      ],
      "stateMutability": "nonpayable",
      "type": "function"
    },
    {
      "inputs": [
        {
          "internalType": "address",
          "name": "newOwner",
          "type": "address"
        }
      ],
      "name": "transferOwnership",
      "outputs": [],
      "stateMutability": "nonpayable",
      "type": "function"
    },
    {
      "stateMutability": "payable",
      "type": "receive"
    }
  ],
  "bytecode": {
    "object": "0x60c0604052600860809081526723b0b9aa37b5b2b760c11b60a052600190620000299082620005d0565b5060408051808201909152600381526247415360e81b6020820152600290620000539082620005d0565b506b033b2e3c9fd0803ce80000006003553480156200007157600080fd5b506200007d33620000c8565b600354336000908152600660205260409020819055600455620000a260018062000118565b51600580546001600160e01b0319166001600160e01b0390921691909117905562000731565b600080546001600160a01b038381166001600160a01b0319831681178455604051919092169283917f8be0079c531659141344cd1fd0a4f28419497f9722a3daafe3b4186f6b6457e09190a35050565b604080516020810190915260008152600082116200018c5760405162461bcd60e51b815260206004820152602660248201527f4669786564506f696e743a3a6672616374696f6e3a206469766973696f6e206260448201526579207a65726f60d01b60648201526084015b60405180910390fd5b82600003620001ab57506040805160208101909152600081526200025b565b6001600160901b03831162000248576000620001cc83607086901b620006c8565b90506001600160e01b03811115620002275760405162461bcd60e51b815260206004820152601e60248201527f4669786564506f696e743a3a6672616374696f6e3a206f766572666c6f770000604482015260640162000183565b6040518060200160405280826001600160e01b03168152509150506200025b565b6000620001cc84600160701b8562000261565b92915050565b600080806200027186866200033f565b91509150600084806200028857620002886200069c565b868809905082811115620002a657620002a3600183620006eb565b91505b620002b28184620006eb565b925081600003620002d457620002c98584620006c8565b935050505062000338565b848210620003255760405162461bcd60e51b815260206004820152601a60248201527f46756c6c4d6174683a2046554c4c4449565f4f564552464c4f57000000000000604482015260640162000183565b6200033283838762000388565b93505050505b9392505050565b60008080600019848609905062000357848662000701565b9250620003658382620006eb565b91508281101562000380576200037d600183620006eb565b91505b509250929050565b600080620003978184620006c8565b9250620003a58186620006c8565b9450620003b4818019620006c8565b620003c19060016200071b565b620003cd908562000701565b620003d990866200071b565b94506001620003e9818562000701565b620003f6906002620006eb565b62000402908262000701565b905062000410818562000701565b6200041d906002620006eb565b62000429908262000701565b905062000437818562000701565b62000444906002620006eb565b62000450908262000701565b90506200045e818562000701565b6200046b906002620006eb565b62000477908262000701565b905062000485818562000701565b62000492906002620006eb565b6200049e908262000701565b9050620004ac818562000701565b620004b9906002620006eb565b620004c5908262000701565b9050620004d3818562000701565b620004e0906002620006eb565b620004ec908262000701565b9050620004fa818562000701565b62000507906002620006eb565b62000513908262000701565b905062000521818762000701565b9695505050505050565b634e487b7160e01b600052604160045260246000fd5b600181811c908216806200055657607f821691505b6020821081036200057757634e487b7160e01b600052602260045260246000fd5b50919050565b601f821115620005cb57600081815260208120601f850160051c81016020861015620005a65750805b601f850160051c820191505b81811015620005c757828155600101620005b2565b5050505b505050565b81516001600160401b03811115620005ec57620005ec6200052b565b6200060481620005fd845462000541565b846200057d565b602080601f8311600181146200063c5760008415620006235750858301515b600019600386901b1c1916600185901b178555620005c7565b600085815260208120601f198616915b828110156200066d578886015182559484019460019091019084016200064c565b50858210156200068c5787850151600019600388901b60f8161c191681555b5050505050600190811b01905550565b634e487b7160e01b600052601260045260246000fd5b634e487b7160e01b600052601160045260246000fd5b600082620006e657634e487b7160e01b600052601260045260246000fd5b500490565b818103818111156200025b576200025b620006b2565b80820281158282048414176200025b576200025b620006b2565b808201808211156200025b576200025b620006b2565b611c5a80620007416000396000f3fe60806040526004361061012e5760003560e01c8063918f8674116100ab578063dd62ed3e1161006f578063dd62ed3e1461030e578063e0689e701461032e578063f2cc0c1814610343578063f2fde38b14610363578063f3520b5e14610383578063f84354f11461039857600080fd5b8063918f86741461028f57806395d89b41146102a4578063a457c2d7146102b9578063a9059cbb146102d9578063d07c9c81146102f957600080fd5b8063313ce567116100f2578063313ce567146101f4578063395093511461021057806370a0823114610230578063715018a6146102505780638da5cb5b1461026757600080fd5b806306fdde031461013a578063095ea7b31461016557806318160ddd1461019557806321570256146101b457806323b872dd146101d457600080fd5b3661013557005b600080fd5b34801561014657600080fd5b5061014f6103b8565b60405161015c91906118f8565b60405180910390f35b34801561017157600080fd5b50610185610180366004611962565b61044a565b604051901515815260200161015c565b3480156101a157600080fd5b506003545b60405190815260200161015c565b3480156101c057600080fd5b506101a66101cf36600461198c565b610464565b3480156101e057600080fd5b506101856101ef3660046119a7565b6104aa565b34801561020057600080fd5b506040516012815260200161015c565b34801561021c57600080fd5b5061018561022b366004611962565b6104ff565b34801561023c57600080fd5b506101a661024b36600461198c565b61051c565b34801561025c57600080fd5b50610265610553565b005b34801561027357600080fd5b506000546040516001600160a01b03909116815260200161015c565b34801561029b57600080fd5b506101a6606481565b3480156102b057600080fd5b5061014f610567565b3480156102c557600080fd5b506101856102d4366004611962565b610576565b3480156102e557600080fd5b506101856102f4366004611962565b610601565b34801561030557600080fd5b506101a6600481565b34801561031a57600080fd5b506101a66103293660046119e3565b610617565b34801561033a57600080fd5b506101a6610642565b34801561034f57600080fd5b5061026561035e36600461198c565b61066e565b34801561036f57600080fd5b5061026561037e36600461198c565b610746565b34801561038f57600080fd5b506004546101a6565b3480156103a457600080fd5b506102656103b336600461198c565b6107bf565b6060600180546103c790611a16565b80601f01602080910402602001604051908101604052809291908181526020018280546103f390611a16565b80156104405780601f1061041557610100808354040283529160200191610440565b820191906000526020600020905b81548152906001019060200180831161042357829003601f168201915b5050505050905090565b600033610458818585610874565b60019150505b92915050565b6001600160a01b03811660009081526007602090815260408083208151928301909152546001600160e01b0316815261045e9060125b6104a590600a611b42565b610998565b60006104b7848484610a0c565b6001600160a01b038416600090815260086020908152604080832033808552925290912054906104f29086906104ed8685611b51565b610874565b60019150505b9392505050565b6000336104588185856105128383610617565b6104ed9190611b64565b6000610529600983610c42565b1561054a57506001600160a01b031660009081526006602052604090205490565b61045e82610c64565b61055b610d50565b6105656000610daa565b565b6060600280546103c790611a16565b600033816105848286610617565b9050838110156105e95760405162461bcd60e51b815260206004820152602560248201527f45524332303a2064656372656173656420616c6c6f77616e63652062656c6f77604482015264207a65726f60d81b60648201526084015b60405180910390fd5b6105f68286868403610874565b506001949350505050565b600061060e338484610a0c565b50600192915050565b6001600160a01b03918216600090815260086020908152604080832093909416825291909152205490565b60408051602081019091526005546001600160e01b0316815260009061066990601261049a565b905090565b610676610d50565b610681600982610c42565b156106c15760405162461bcd60e51b815260206004820152601060248201526f105b1c9958591e48195e18db1d59195960821b60448201526064016105e0565b6106cc600982610dfa565b5060006106d882610c64565b6001600160a01b038316600090815260066020526040812082905560048054929350839290919061070a908490611b51565b9091555050506001600160a01b0316600090815260076020526040902060055481546001600160e01b0319166001600160e01b03909116179055565b61074e610d50565b6001600160a01b0381166107b35760405162461bcd60e51b815260206004820152602660248201527f4f776e61626c653a206e6577206f776e657220697320746865207a65726f206160448201526564647265737360d01b60648201526084016105e0565b6107bc81610daa565b50565b6107c7610d50565b6107d2600982610c42565b6108115760405162461bcd60e51b815260206004820152601060248201526f105b1c9958591e481a5b98db1d59195960821b60448201526064016105e0565b61081c600982610e0f565b506001600160a01b038116600090815260076020526040902060055481546001600160e01b0319166001600160e01b0390911617905561085b81610c64565b6004600082825461086c9190611b64565b909155505050565b6001600160a01b0383166108d65760405162461bcd60e51b8152602060048201526024808201527f45524332303a20617070726f76652066726f6d20746865207a65726f206164646044820152637265737360e01b60648201526084016105e0565b6001600160a01b0382166109375760405162461bcd60e51b815260206004820152602260248201527f45524332303a20617070726f766520746f20746865207a65726f206164647265604482015261737360f01b60648201526084016105e0565b6001600160a01b0383811660008181526008602090815260408083209487168084529482529182902085905590518481527f8c5be1e5ebec7d5bd14f71427d1e84f3dd0314c0f7b2291e5b200ac8c7c3b925910160405180910390a3505050565b6000806109b784600001516001600160e01b031684600160701b610e24565b9050600160ff1b81106104f85760405162461bcd60e51b815260206004820152601a60248201527f4669786564506f696e743a3a6d756c693a206f766572666c6f7700000000000060448201526064016105e0565b6001600160a01b038316610a625760405162461bcd60e51b815260206004820152601f60248201527f45524332303a207472616e736665722066726f6d20616464726573732830290060448201526064016105e0565b6001600160a01b038216610ab85760405162461bcd60e51b815260206004820152601d60248201527f45524332303a207472616e7366657220746f206164647265737328302900000060448201526064016105e0565b6000610ac48484610eef565b90506000610ad185610c64565b905082811015610b325760405162461bcd60e51b815260206004820152602660248201527f45524332303a207472616e7366657220616d6f756e7420657863656564732062604482015265616c616e636560d01b60648201526084016105e0565b610b3c8382611b51565b6001600160a01b038616600090815260066020526040902055610b5e85610f1d565b8115610b965782610b6e85610c64565b610b789190611b64565b6001600160a01b038516600090815260066020526040902055610bcc565b610b9f83610f64565b610ba885610c64565b610bb29190611b64565b6001600160a01b0385166000908152600660205260409020555b610bd584610f1d565b610be0858585610f87565b81610bee57610bee83610ffc565b836001600160a01b0316856001600160a01b03167fddf252ad1be2c89b69c2b068fc378daa952ba7f163c4a11628f55a4df523b3ef85604051610c3391815260200190565b60405180910390a35050505050565b6001600160a01b038116600090815260018301602052604081205415156104f8565b6001600160a01b03811660009081526006602090815260408083205460078352818420825193840190925290546001600160e01b03168083529091908303610cad575092915050565b610cd56040518060400160405280600781526020016662616c616e636560c81b81525061106d565b60055481516001600160e01b03918216911603610cf3575092915050565b610d15604051806040016040528060018152602001606360f81b81525061106d565b60408051602081019091526005546001600160e01b03168152600090610d3b90836110b0565b9050610d478184610998565b95945050505050565b6000546001600160a01b031633146105655760405162461bcd60e51b815260206004820181905260248201527f4f776e61626c653a2063616c6c6572206973206e6f7420746865206f776e657260448201526064016105e0565b600080546001600160a01b038381166001600160a01b0319831681178455604051919092169283917f8be0079c531659141344cd1fd0a4f28419497f9722a3daafe3b4186f6b6457e09190a35050565b60006104f8836001600160a01b0384166112b6565b60006104f8836001600160a01b038416611305565b6000806000610e3386866113f8565b9150915060008480610e4757610e47611b77565b868809905082811115610e6257610e5f600183611b51565b91505b610e6c8184611b51565b925081600003610e8a57610e808584611b8d565b93505050506104f8565b848210610ed95760405162461bcd60e51b815260206004820152601a60248201527f46756c6c4d6174683a2046554c4c4449565f4f564552464c4f5700000000000060448201526064016105e0565b610ee483838761143a565b979650505050505050565b600080610efd600985610c42565b90506000610f0c600985610c42565b90508180610d475750949350505050565b610f28600982610c42565b6107bc576001600160a01b038116600090815260076020526040902060055481546001600160e01b0319166001600160e01b0390911617905550565b60006064610f73600482611b51565b610f7d9084611baf565b61045e9190611b8d565b6000610f94600985610c42565b90506000610fa3600985610c42565b9050818015610fb0575080155b15610fcd578260046000828254610fc79190611b64565b90915550505b81158015610fd85750805b15610ff5578260046000828254610fef9190611b51565b90915550505b5050505050565b6000606461100b600484611baf565b6110159190611b8d565b905060006110228261159f565b60408051602081019091526005546001600160e01b0316815290915061104890826115c4565b51600580546001600160e01b0319166001600160e01b03909216919091179055505050565b6107bc8160405160240161108191906118f8565b60408051601f198184030181529190526020810180516001600160e01b031663104c13eb60e21b1790526117c4565b60408051602081019091526000815281516001600160e01b03166111225760405162461bcd60e51b815260206004820152602360248201527f4669786564506f696e743a3a64697675713a206469766973696f6e206279207a60448201526265726f60e81b60648201526084016105e0565b815183516001600160e01b0391821691160361115057506040805160208101909152600160701b815261045e565b82516001600160901b036001600160e01b0390911611611213578151835160009161119a916001600160e01b039091169060701b6dffffffffffffffffffffffffffff1916611b8d565b90506001600160e01b038111156111f35760405162461bcd60e51b815260206004820152601b60248201527f4669786564506f696e743a3a64697675713a206f766572666c6f77000000000060448201526064016105e0565b6040518060200160405280826001600160e01b031681525091505061045e565b600061123e600160701b85600001516001600160e01b031685600001516001600160e01b0316610e24565b90506001600160e01b038111156112975760405162461bcd60e51b815260206004820152601b60248201527f4669786564506f696e743a3a64697675713a206f766572666c6f77000000000060448201526064016105e0565b60408051602081019091526001600160e01b0390911681529392505050565b60008181526001830160205260408120546112fd5750815460018181018455600084815260208082209093018490558454848252828601909352604090209190915561045e565b50600061045e565b600081815260018301602052604081205480156113ee576000611329600183611b51565b855490915060009061133d90600190611b51565b90508181146113a257600086600001828154811061135d5761135d611bc6565b906000526020600020015490508087600001848154811061138057611380611bc6565b6000918252602080832090910192909255918252600188019052604090208390555b85548690806113b3576113b3611bdc565b60019003818190600052602060002001600090559055856001016000868152602001908152602001600020600090556001935050505061045e565b600091505061045e565b60008080600019848609905061140e8486611baf565b925061141a8382611b51565b9150828110156114325761142f600183611b51565b91505b509250929050565b6000806114478184611b8d565b92506114538186611b8d565b9450611460818019611b8d565b61146b906001611b64565b6114759085611baf565b61147f9086611b64565b9450600161148d8185611baf565b611498906002611b51565b6114a29082611baf565b90506114ae8185611baf565b6114b9906002611b51565b6114c39082611baf565b90506114cf8185611baf565b6114da906002611b51565b6114e49082611baf565b90506114f08185611baf565b6114fb906002611b51565b6115059082611baf565b90506115118185611baf565b61151c906002611b51565b6115269082611baf565b90506115328185611baf565b61153d906002611b51565b6115479082611baf565b90506115538185611baf565b61155e906002611b51565b6115689082611baf565b90506115748185611baf565b61157f906002611b51565b6115899082611baf565b90506115958187611baf565b9695505050505050565b6040805160208101909152600081526004546104f8816115bf8582611b51565b6117e5565b60408051602081019091526000815282516001600160e01b031615806115f2575081516001600160e01b0316155b1561160c575060408051602081019091526000815261045e565b825182516001600160701b03607083811c8216938216929081901c8216911660006116378386611bf2565b905060006116516001600160701b03808516908716611bf2565b9050600061166b6001600160701b03808616908916611bf2565b905060006116856001600160701b03808916908816611bf2565b90506001600160701b036001600160e01b03851611156116f15760405162461bcd60e51b815260206004820152602160248201527f4669786564506f696e743a3a6d756c75713a207570706572206f766572666c6f6044820152607760f81b60648201526084016105e0565b6000607084811c6001600160701b0316906001600160e01b03848116916117309187169089901b6dffffffffffffffffffffffffffff60701b16611b64565b61173a9190611b64565b6117449190611b64565b90506001600160e01b0381111561179d5760405162461bcd60e51b815260206004820152601f60248201527f4669786564506f696e743a3a6d756c75713a2073756d206f766572666c6f770060448201526064016105e0565b60408051602081019091526001600160e01b0390911681529b9a5050505050505050505050565b80516a636f6e736f6c652e6c6f67602083016000808483855afa5050505050565b604080516020810190915260008152600082116118535760405162461bcd60e51b815260206004820152602660248201527f4669786564506f696e743a3a6672616374696f6e3a206469766973696f6e206260448201526579207a65726f60d01b60648201526084016105e0565b82600003611870575060408051602081019091526000815261045e565b6001600160901b0383116118e757600061188e83607086901b611b8d565b90506001600160e01b038111156111f35760405162461bcd60e51b815260206004820152601e60248201527f4669786564506f696e743a3a6672616374696f6e3a206f766572666c6f77000060448201526064016105e0565b600061188e84600160701b85610e24565b600060208083528351808285015260005b8181101561192557858101830151858201604001528201611909565b506000604082860101526040601f19601f8301168501019250505092915050565b80356001600160a01b038116811461195d57600080fd5b919050565b6000806040838503121561197557600080fd5b61197e83611946565b946020939093013593505050565b60006020828403121561199e57600080fd5b6104f882611946565b6000806000606084860312156119bc57600080fd5b6119c584611946565b92506119d360208501611946565b9150604084013590509250925092565b600080604083850312156119f657600080fd5b6119ff83611946565b9150611a0d60208401611946565b90509250929050565b600181811c90821680611a2a57607f821691505b602082108103611a4a57634e487b7160e01b600052602260045260246000fd5b50919050565b634e487b7160e01b600052601160045260246000fd5b600181815b80851115611432578160001904821115611a8757611a87611a50565b80851615611a9457918102915b93841c9390800290611a6b565b600082611ab05750600161045e565b81611abd5750600061045e565b8160018114611ad35760028114611add57611af9565b600191505061045e565b60ff841115611aee57611aee611a50565b50506001821b61045e565b5060208310610133831016604e8410600b8410161715611b1c575081810a61045e565b611b268383611a66565b8060001904821115611b3a57611b3a611a50565b029392505050565b60006104f860ff841683611aa1565b8181038181111561045e5761045e611a50565b8082018082111561045e5761045e611a50565b634e487b7160e01b600052601260045260246000fd5b600082611baa57634e487b7160e01b600052601260045260246000fd5b500490565b808202811582820484141761045e5761045e611a50565b634e487b7160e01b600052603260045260246000fd5b634e487b7160e01b600052603160045260246000fd5b6001600160e01b03828116828216818102831692918115828504821417611c1b57611c1b611a50565b5050509291505056fea2646970667358221220fd1f62481c20f505a4bf2f93f7a5262ddff42e9218e793a627f76b4627c3110164736f6c63430008150033",
    "linkReferences": {}
  },
  "methodIdentifiers": {
    "DENOMINATOR()": "918f8674",
    "TAX_FEE()": "d07c9c81",
    "allowance(address,address)": "dd62ed3e",
    "approve(address,uint256)": "095ea7b3",
    "balanceOf(address)": "70a08231",
    "decimals()": "313ce567",
    "decreaseAllowance(address,uint256)": "a457c2d7",
    "excludeAccount(address)": "f2cc0c18",
    "getEarningFactor()": "e0689e70",
    "getEffectiveTotal()": "f3520b5e",
    "getSnapshot(address)": "21570256",
    "includeAccount(address)": "f84354f1",
    "increaseAllowance(address,uint256)": "39509351",
    "name()": "06fdde03",
    "owner()": "8da5cb5b",
    "renounceOwnership()": "715018a6",
    "symbol()": "95d89b41",
    "totalSupply()": "18160ddd",
    "transfer(address,uint256)": "a9059cbb",
    "transferFrom(address,address,uint256)": "23b872dd",
    "transferOwnership(address)": "f2fde38b"
  },
  "id": 0
}