{
  "abi": [
    {
      "inputs": [],
      "stateMutability": "nonpayable",
      "type": "constructor"
    },
    {
      "anonymous": false,
      "inputs": [
        {
          "indexed": true,
          "internalType": "address",
          "name": "owner",
          "type": "address"
        },
        {
          "indexed": true,
          "internalType": "address",
          "name": "spender",
          "type": "address"
        },
        {
          "indexed": false,
          "internalType": "uint256",
          "name": "value",
          "type": "uint256"
        }
      ],
      "name": "Approval",
      "type": "event"
    },
    {
      "anonymous": false,
      "inputs": [
        {
          "indexed": true,
          "internalType": "address",
          "name": "previousOwner",
          "type": "address"
        },
        {
          "indexed": true,
          "internalType": "address",
          "name": "newOwner",
          "type": "address"
        }
      ],
      "name": "OwnershipTransferred",
      "type": "event"
    },
    {
      "anonymous": false,
      "inputs": [
        {
          "indexed": true,
          "internalType": "address",
          "name": "from",
          "type": "address"
        },
        {
          "indexed": true,
          "internalType": "address",
          "name": "to",
          "type": "address"
        },
        {
          "indexed": false,
          "internalType": "uint256",
          "name": "value",
          "type": "uint256"
        }
      ],
      "name": "Transfer",
      "type": "event"
    },
    {
      "inputs": [],
      "name": "DENOMINATOR",
      "outputs": [
        {
          "internalType": "uint256",
          "name": "",
          "type": "uint256"
        }
      ],
      "stateMutability": "view",
      "type": "function"
    },
    {
      "inputs": [],
      "name": "TAX_FEE",
      "outputs": [
        {
          "internalType": "uint256",
          "name": "",
          "type": "uint256"
        }
      ],
      "stateMutability": "view",
      "type": "function"
    },
    {
      "inputs": [
        {
          "internalType": "address",
          "name": "owner",
          "type": "address"
        },
        {
          "internalType": "address",
          "name": "spender",
          "type": "address"
        }
      ],
      "name": "allowance",
      "outputs": [
        {
          "internalType": "uint256",
          "name": "",
          "type": "uint256"
        }
      ],
      "stateMutability": "view",
      "type": "function"
    },
    {
      "inputs": [
        {
          "internalType": "address",
          "name": "spender",
          "type": "address"
        },
        {
          "internalType": "uint256",
          "name": "amount",
          "type": "uint256"
        }
      ],
      "name": "approve",
      "outputs": [
        {
          "internalType": "bool",
          "name": "",
          "type": "bool"
        }
      ],
      "stateMutability": "nonpayable",
      "type": "function"
    },
    {
      "inputs": [
        {
          "internalType": "address",
          "name": "account",
          "type": "address"
        }
      ],
      "name": "balanceOf",
      "outputs": [
        {
          "internalType": "uint256",
          "name": "",
          "type": "uint256"
        }
      ],
      "stateMutability": "view",
      "type": "function"
    },
    {
      "inputs": [],
      "name": "decimals",
      "outputs": [
        {
          "internalType": "uint8",
          "name": "",
          "type": "uint8"
        }
      ],
      "stateMutability": "pure",
      "type": "function"
    },
    {
      "inputs": [
        {
          "internalType": "address",
          "name": "spender",
          "type": "address"
        },
        {
          "internalType": "uint256",
          "name": "subtractedValue",
          "type": "uint256"
        }
      ],
      "name": "decreaseAllowance",
      "outputs": [
        {
          "internalType": "bool",
          "name": "",
          "type": "bool"
        }
      ],
      "stateMutability": "nonpayable",
      "type": "function"
    },
    {
      "inputs": [
        {
          "internalType": "address",
          "name": "account",
          "type": "address"
        }
      ],
      "name": "excludeAccount",
      "outputs": [],
      "stateMutability": "nonpayable",
      "type": "function"
    },
    {
      "inputs": [],
      "name": "getEarningFactor",
      "outputs": [
        {
          "internalType": "uint256",
          "name": "",
          "type": "uint256"
        }
      ],
      "stateMutability": "view",
      "type": "function"
    },
    {
      "inputs": [],
      "name": "getEffectiveTotal",
      "outputs": [
        {
          "internalType": "uint256",
          "name": "",
          "type": "uint256"
        }
      ],
      "stateMutability": "view",
      "type": "function"
    },
    {
      "inputs": [
        {
          "internalType": "address",
          "name": "account",
          "type": "address"
        }
      ],
      "name": "getSnapshot",
      "outputs": [
        {
          "internalType": "uint256",
          "name": "",
          "type": "uint256"
        }
      ],
      "stateMutability": "view",
      "type": "function"
    },
    {
      "inputs": [
        {
          "internalType": "address",
          "name": "account",
          "type": "address"
        }
      ],
      "name": "includeAccount",
      "outputs": [],
      "stateMutability": "nonpayable",
      "type": "function"
    },
    {
      "inputs": [
        {
          "internalType": "address",
          "name": "spender",
          "type": "address"
        },
        {
          "internalType": "uint256",
          "name": "addedValue",
          "type": "uint256"
        }
      ],
      "name": "increaseAllowance",
      "outputs": [
        {
          "internalType": "bool",
          "name": "",
          "type": "bool"
        }
      ],
      "stateMutability": "nonpayable",
      "type": "function"
    },
    {
      "inputs": [],
      "name": "name",
      "outputs": [
        {
          "internalType": "string",
          "name": "",
          "type": "string"
        }
      ],
      "stateMutability": "view",
      "type": "function"
    },
    {
      "inputs": [],
      "name": "owner",
      "outputs": [
        {
          "internalType": "address",
          "name": "",
          "type": "address"
        }
      ],
      "stateMutability": "view",
      "type": "function"
    },
    {
      "inputs": [],
      "name": "renounceOwnership",
      "outputs": [],
      "stateMutability": "nonpayable",
      "type": "function"
    },
    {
      "inputs": [],
      "name": "symbol",
      "outputs": [
        {
          "internalType": "string",
          "name": "",
          "type": "string"
        }
      ],
      "stateMutability": "view",
      "type": "function"
    },
    {
      "inputs": [],
      "name": "totalSupply",
      "outputs": [
        {
          "internalType": "uint256",
          "name": "",
          "type": "uint256"
        }
      ],
      "stateMutability": "view",
      "type": "function"
    },
    {
      "inputs": [
        {
          "internalType": "address",
          "name": "recipient",
          "type": "address"
        },
        {
          "internalType": "uint256",
          "name": "amount",
          "type": "uint256"
        }
      ],
      "name": "transfer",
      "outputs": [
        {
          "internalType": "bool",
          "name": "",
          "type": "bool"
        }
      ],
      "stateMutability": "nonpayable",
      "type": "function"
    },
    {
      "inputs": [
        {
          "internalType": "address",
          "name": "sender",
          "type": "address"
        },
        {
          "internalType": "address",
          "name": "recipient",
          "type": "address"
        },
        {
          "internalType": "uint256",
          "name": "amount",
          "type": "uint256"
        }
      ],
      "name": "transferFrom",
      "outputs": [
        {
          "internalType": "bool",
          "name": "",
          "type": "bool"
        }
      ],
      "stateMutability": "nonpayable",
      "type": "function"
    },
    {
      "inputs": [
        {
          "internalType": "address",
          "name": "newOwner",
          "type": "address"
        }
      ],
      "name": "transferOwnership",
      "outputs": [],
      "stateMutability": "nonpayable",
      "type": "function"
    },
    {
      "stateMutability": "payable",
      "type": "receive"
    }
  ],
  "bytecode": {
    "object": "0x60c0604052600860809081526723b0b9aa37b5b2b760c11b60a052600190620000299082620005ce565b5060408051808201909152600381526247415360e81b6020820152600290620000539082620005ce565b50690cb49b44ba602d8000006003553480156200006f57600080fd5b506200007b33620000c6565b600354336000908152600660205260409020819055600455620000a060018062000116565b51600580546001600160e01b0319166001600160e01b039092169190911790556200072f565b600080546001600160a01b038381166001600160a01b0319831681178455604051919092169283917f8be0079c531659141344cd1fd0a4f28419497f9722a3daafe3b4186f6b6457e09190a35050565b604080516020810190915260008152600082116200018a5760405162461bcd60e51b815260206004820152602660248201527f4669786564506f696e743a3a6672616374696f6e3a206469766973696f6e206260448201526579207a65726f60d01b60648201526084015b60405180910390fd5b82600003620001a9575060408051602081019091526000815262000259565b6001600160901b03831162000246576000620001ca83607086901b620006c6565b90506001600160e01b03811115620002255760405162461bcd60e51b815260206004820152601e60248201527f4669786564506f696e743a3a6672616374696f6e3a206f766572666c6f770000604482015260640162000181565b6040518060200160405280826001600160e01b031681525091505062000259565b6000620001ca84600160701b856200025f565b92915050565b600080806200026f86866200033d565b91509150600084806200028657620002866200069a565b868809905082811115620002a457620002a1600183620006e9565b91505b620002b08184620006e9565b925081600003620002d257620002c78584620006c6565b935050505062000336565b848210620003235760405162461bcd60e51b815260206004820152601a60248201527f46756c6c4d6174683a2046554c4c4449565f4f564552464c4f57000000000000604482015260640162000181565b6200033083838762000386565b93505050505b9392505050565b600080806000198486099050620003558486620006ff565b9250620003638382620006e9565b9150828110156200037e576200037b600183620006e9565b91505b509250929050565b600080620003958184620006c6565b9250620003a38186620006c6565b9450620003b2818019620006c6565b620003bf90600162000719565b620003cb9085620006ff565b620003d7908662000719565b94506001620003e78185620006ff565b620003f4906002620006e9565b620004009082620006ff565b90506200040e8185620006ff565b6200041b906002620006e9565b620004279082620006ff565b9050620004358185620006ff565b62000442906002620006e9565b6200044e9082620006ff565b90506200045c8185620006ff565b62000469906002620006e9565b620004759082620006ff565b9050620004838185620006ff565b62000490906002620006e9565b6200049c9082620006ff565b9050620004aa8185620006ff565b620004b7906002620006e9565b620004c39082620006ff565b9050620004d18185620006ff565b620004de906002620006e9565b620004ea9082620006ff565b9050620004f88185620006ff565b62000505906002620006e9565b620005119082620006ff565b90506200051f8187620006ff565b9695505050505050565b634e487b7160e01b600052604160045260246000fd5b600181811c908216806200055457607f821691505b6020821081036200057557634e487b7160e01b600052602260045260246000fd5b50919050565b601f821115620005c957600081815260208120601f850160051c81016020861015620005a45750805b601f850160051c820191505b81811015620005c557828155600101620005b0565b5050505b505050565b81516001600160401b03811115620005ea57620005ea62000529565b6200060281620005fb84546200053f565b846200057b565b602080601f8311600181146200063a5760008415620006215750858301515b600019600386901b1c1916600185901b178555620005c5565b600085815260208120601f198616915b828110156200066b578886015182559484019460019091019084016200064a565b50858210156200068a5787850151600019600388901b60f8161c191681555b5050505050600190811b01905550565b634e487b7160e01b600052601260045260246000fd5b634e487b7160e01b600052601160045260246000fd5b600082620006e457634e487b7160e01b600052601260045260246000fd5b500490565b81810381811115620002595762000259620006b0565b8082028115828204841417620002595762000259620006b0565b80820180821115620002595762000259620006b0565b611bf9806200073f6000396000f3fe60806040526004361061012e5760003560e01c8063918f8674116100ab578063dd62ed3e1161006f578063dd62ed3e1461030e578063e0689e701461032e578063f2cc0c1814610343578063f2fde38b14610363578063f3520b5e14610383578063f84354f11461039857600080fd5b8063918f86741461028f57806395d89b41146102a4578063a457c2d7146102b9578063a9059cbb146102d9578063d07c9c81146102f957600080fd5b8063313ce567116100f2578063313ce567146101f4578063395093511461021057806370a0823114610230578063715018a6146102505780638da5cb5b1461026757600080fd5b806306fdde031461013a578063095ea7b31461016557806318160ddd1461019557806321570256146101b457806323b872dd146101d457600080fd5b3661013557005b600080fd5b34801561014657600080fd5b5061014f6103b8565b60405161015c9190611897565b60405180910390f35b34801561017157600080fd5b50610185610180366004611901565b61044a565b604051901515815260200161015c565b3480156101a157600080fd5b506003545b60405190815260200161015c565b3480156101c057600080fd5b506101a66101cf36600461192b565b610464565b3480156101e057600080fd5b506101856101ef366004611946565b6104aa565b34801561020057600080fd5b506040516012815260200161015c565b34801561021c57600080fd5b5061018561022b366004611901565b6104cd565b34801561023c57600080fd5b506101a661024b36600461192b565b6104ef565b34801561025c57600080fd5b50610265610526565b005b34801561027357600080fd5b506000546040516001600160a01b03909116815260200161015c565b34801561029b57600080fd5b506101a6606481565b3480156102b057600080fd5b5061014f61053a565b3480156102c557600080fd5b506101856102d4366004611901565b610549565b3480156102e557600080fd5b506101856102f4366004611901565b6105d4565b34801561030557600080fd5b506101a6600481565b34801561031a57600080fd5b506101a6610329366004611982565b6105ea565b34801561033a57600080fd5b506101a6610615565b34801561034f57600080fd5b5061026561035e36600461192b565b610641565b34801561036f57600080fd5b5061026561037e36600461192b565b610719565b34801561038f57600080fd5b506004546101a6565b3480156103a457600080fd5b506102656103b336600461192b565b610792565b6060600180546103c7906119b5565b80601f01602080910402602001604051908101604052809291908181526020018280546103f3906119b5565b80156104405780601f1061041557610100808354040283529160200191610440565b820191906000526020600020905b81548152906001019060200180831161042357829003601f168201915b5050505050905090565b600033610458818585610847565b60019150505b92915050565b6001600160a01b03811660009081526007602090815260408083208151928301909152546001600160e01b0316815261045e9060125b6104a590600a611ae1565b61096b565b60006104b78433846109df565b6104c2848484610a59565b5060015b9392505050565b6000336104588185856104e083836105ea565b6104ea9190611af0565b610847565b60006104fc600983610c8f565b1561051d57506001600160a01b031660009081526006602052604090205490565b61045e82610cb1565b61052e610d53565b6105386000610dad565b565b6060600280546103c7906119b5565b6000338161055782866105ea565b9050838110156105bc5760405162461bcd60e51b815260206004820152602560248201527f45524332303a2064656372656173656420616c6c6f77616e63652062656c6f77604482015264207a65726f60d81b60648201526084015b60405180910390fd5b6105c98286868403610847565b506001949350505050565b60006105e1338484610a59565b50600192915050565b6001600160a01b03918216600090815260086020908152604080832093909416825291909152205490565b60408051602081019091526005546001600160e01b0316815260009061063c90601261049a565b905090565b610649610d53565b610654600982610c8f565b156106945760405162461bcd60e51b815260206004820152601060248201526f105b1c9958591e48195e18db1d59195960821b60448201526064016105b3565b61069f600982610dfd565b5060006106ab82610cb1565b6001600160a01b03831660009081526006602052604081208290556004805492935083929091906106dd908490611b03565b9091555050506001600160a01b0316600090815260076020526040902060055481546001600160e01b0319166001600160e01b03909116179055565b610721610d53565b6001600160a01b0381166107865760405162461bcd60e51b815260206004820152602660248201527f4f776e61626c653a206e6577206f776e657220697320746865207a65726f206160448201526564647265737360d01b60648201526084016105b3565b61078f81610dad565b50565b61079a610d53565b6107a5600982610c8f565b6107e45760405162461bcd60e51b815260206004820152601060248201526f105b1c9958591e481a5b98db1d59195960821b60448201526064016105b3565b6107ef600982610e12565b506001600160a01b038116600090815260076020526040902060055481546001600160e01b0319166001600160e01b0390911617905561082e81610cb1565b6004600082825461083f9190611af0565b909155505050565b6001600160a01b0383166108a95760405162461bcd60e51b8152602060048201526024808201527f45524332303a20617070726f76652066726f6d20746865207a65726f206164646044820152637265737360e01b60648201526084016105b3565b6001600160a01b03821661090a5760405162461bcd60e51b815260206004820152602260248201527f45524332303a20617070726f766520746f20746865207a65726f206164647265604482015261737360f01b60648201526084016105b3565b6001600160a01b0383811660008181526008602090815260408083209487168084529482529182902085905590518481527f8c5be1e5ebec7d5bd14f71427d1e84f3dd0314c0f7b2291e5b200ac8c7c3b925910160405180910390a3505050565b60008061098a84600001516001600160e01b031684600160701b610e27565b9050600160ff1b81106104c65760405162461bcd60e51b815260206004820152601a60248201527f4669786564506f696e743a3a6d756c693a206f766572666c6f7700000000000060448201526064016105b3565b60006109eb84846105ea565b90506000198114610a535781811015610a465760405162461bcd60e51b815260206004820152601d60248201527f45524332303a20696e73756666696369656e7420616c6c6f77616e636500000060448201526064016105b3565b610a538484848403610847565b50505050565b6001600160a01b038316610aaf5760405162461bcd60e51b815260206004820152601f60248201527f45524332303a207472616e736665722066726f6d20616464726573732830290060448201526064016105b3565b6001600160a01b038216610b055760405162461bcd60e51b815260206004820152601d60248201527f45524332303a207472616e7366657220746f206164647265737328302900000060448201526064016105b3565b6000610b118484610ef2565b90506000610b1e856104ef565b905082811015610b7f5760405162461bcd60e51b815260206004820152602660248201527f45524332303a207472616e7366657220616d6f756e7420657863656564732062604482015265616c616e636560d01b60648201526084016105b3565b610b898382611b03565b6001600160a01b038616600090815260066020526040902055610bab85610f20565b8115610be35782610bbb856104ef565b610bc59190611af0565b6001600160a01b038516600090815260066020526040902055610c19565b610bec83610f67565b610bf585610cb1565b610bff9190611af0565b6001600160a01b0385166000908152600660205260409020555b610c2284610f20565b610c2d858585610f8a565b81610c3b57610c3b83610fff565b836001600160a01b0316856001600160a01b03167fddf252ad1be2c89b69c2b068fc378daa952ba7f163c4a11628f55a4df523b3ef85604051610c8091815260200190565b60405180910390a35050505050565b6001600160a01b038116600090815260018301602052604081205415156104c6565b6001600160a01b03811660009081526006602090815260408083205460078352818420825193840190925290546001600160e01b03168083529091908303610cfa575092915050565b60055481516001600160e01b03918216911603610d18575092915050565b60408051602081019091526005546001600160e01b03168152600090610d3e9083611070565b9050610d4a818461096b565b95945050505050565b6000546001600160a01b031633146105385760405162461bcd60e51b815260206004820181905260248201527f4f776e61626c653a2063616c6c6572206973206e6f7420746865206f776e657260448201526064016105b3565b600080546001600160a01b038381166001600160a01b0319831681178455604051919092169283917f8be0079c531659141344cd1fd0a4f28419497f9722a3daafe3b4186f6b6457e09190a35050565b60006104c6836001600160a01b038416611276565b60006104c6836001600160a01b0384166112c5565b6000806000610e3686866113b8565b9150915060008480610e4a57610e4a611b16565b868809905082811115610e6557610e62600183611b03565b91505b610e6f8184611b03565b925081600003610e8d57610e838584611b2c565b93505050506104c6565b848210610edc5760405162461bcd60e51b815260206004820152601a60248201527f46756c6c4d6174683a2046554c4c4449565f4f564552464c4f5700000000000060448201526064016105b3565b610ee78383876113fa565b979650505050505050565b600080610f00600985610c8f565b90506000610f0f600985610c8f565b90508180610d4a5750949350505050565b610f2b600982610c8f565b61078f576001600160a01b038116600090815260076020526040902060055481546001600160e01b0319166001600160e01b0390911617905550565b60006064610f76600482611b03565b610f809084611b4e565b61045e9190611b2c565b6000610f97600985610c8f565b90506000610fa6600985610c8f565b9050818015610fb3575080155b15610fd0578260046000828254610fca9190611af0565b90915550505b81158015610fdb5750805b15610ff8578260046000828254610ff29190611b03565b90915550505b5050505050565b6000606461100e600484611b4e565b6110189190611b2c565b905060006110258261155f565b60408051602081019091526005546001600160e01b0316815290915061104b9082611584565b51600580546001600160e01b0319166001600160e01b03909216919091179055505050565b60408051602081019091526000815281516001600160e01b03166110e25760405162461bcd60e51b815260206004820152602360248201527f4669786564506f696e743a3a64697675713a206469766973696f6e206279207a60448201526265726f60e81b60648201526084016105b3565b815183516001600160e01b0391821691160361111057506040805160208101909152600160701b815261045e565b82516001600160901b036001600160e01b03909116116111d3578151835160009161115a916001600160e01b039091169060701b6dffffffffffffffffffffffffffff1916611b2c565b90506001600160e01b038111156111b35760405162461bcd60e51b815260206004820152601b60248201527f4669786564506f696e743a3a64697675713a206f766572666c6f77000000000060448201526064016105b3565b6040518060200160405280826001600160e01b031681525091505061045e565b60006111fe600160701b85600001516001600160e01b031685600001516001600160e01b0316610e27565b90506001600160e01b038111156112575760405162461bcd60e51b815260206004820152601b60248201527f4669786564506f696e743a3a64697675713a206f766572666c6f77000000000060448201526064016105b3565b60408051602081019091526001600160e01b0390911681529392505050565b60008181526001830160205260408120546112bd5750815460018181018455600084815260208082209093018490558454848252828601909352604090209190915561045e565b50600061045e565b600081815260018301602052604081205480156113ae5760006112e9600183611b03565b85549091506000906112fd90600190611b03565b905081811461136257600086600001828154811061131d5761131d611b65565b906000526020600020015490508087600001848154811061134057611340611b65565b6000918252602080832090910192909255918252600188019052604090208390555b855486908061137357611373611b7b565b60019003818190600052602060002001600090559055856001016000868152602001908152602001600020600090556001935050505061045e565b600091505061045e565b6000808060001984860990506113ce8486611b4e565b92506113da8382611b03565b9150828110156113f2576113ef600183611b03565b91505b509250929050565b6000806114078184611b2c565b92506114138186611b2c565b9450611420818019611b2c565b61142b906001611af0565b6114359085611b4e565b61143f9086611af0565b9450600161144d8185611b4e565b611458906002611b03565b6114629082611b4e565b905061146e8185611b4e565b611479906002611b03565b6114839082611b4e565b905061148f8185611b4e565b61149a906002611b03565b6114a49082611b4e565b90506114b08185611b4e565b6114bb906002611b03565b6114c59082611b4e565b90506114d18185611b4e565b6114dc906002611b03565b6114e69082611b4e565b90506114f28185611b4e565b6114fd906002611b03565b6115079082611b4e565b90506115138185611b4e565b61151e906002611b03565b6115289082611b4e565b90506115348185611b4e565b61153f906002611b03565b6115499082611b4e565b90506115558187611b4e565b9695505050505050565b6040805160208101909152600081526004546104c68161157f8582611b03565b611784565b60408051602081019091526000815282516001600160e01b031615806115b2575081516001600160e01b0316155b156115cc575060408051602081019091526000815261045e565b825182516001600160701b03607083811c8216938216929081901c8216911660006115f78386611b91565b905060006116116001600160701b03808516908716611b91565b9050600061162b6001600160701b03808616908916611b91565b905060006116456001600160701b03808916908816611b91565b90506001600160701b036001600160e01b03851611156116b15760405162461bcd60e51b815260206004820152602160248201527f4669786564506f696e743a3a6d756c75713a207570706572206f766572666c6f6044820152607760f81b60648201526084016105b3565b6000607084811c6001600160701b0316906001600160e01b03848116916116f09187169089901b6dffffffffffffffffffffffffffff60701b16611af0565b6116fa9190611af0565b6117049190611af0565b90506001600160e01b0381111561175d5760405162461bcd60e51b815260206004820152601f60248201527f4669786564506f696e743a3a6d756c75713a2073756d206f766572666c6f770060448201526064016105b3565b60408051602081019091526001600160e01b0390911681529b9a5050505050505050505050565b604080516020810190915260008152600082116117f25760405162461bcd60e51b815260206004820152602660248201527f4669786564506f696e743a3a6672616374696f6e3a206469766973696f6e206260448201526579207a65726f60d01b60648201526084016105b3565b8260000361180f575060408051602081019091526000815261045e565b6001600160901b03831161188657600061182d83607086901b611b2c565b90506001600160e01b038111156111b35760405162461bcd60e51b815260206004820152601e60248201527f4669786564506f696e743a3a6672616374696f6e3a206f766572666c6f77000060448201526064016105b3565b600061182d84600160701b85610e27565b600060208083528351808285015260005b818110156118c4578581018301518582016040015282016118a8565b506000604082860101526040601f19601f8301168501019250505092915050565b80356001600160a01b03811681146118fc57600080fd5b919050565b6000806040838503121561191457600080fd5b61191d836118e5565b946020939093013593505050565b60006020828403121561193d57600080fd5b6104c6826118e5565b60008060006060848603121561195b57600080fd5b611964846118e5565b9250611972602085016118e5565b9150604084013590509250925092565b6000806040838503121561199557600080fd5b61199e836118e5565b91506119ac602084016118e5565b90509250929050565b600181811c908216806119c957607f821691505b6020821081036119e957634e487b7160e01b600052602260045260246000fd5b50919050565b634e487b7160e01b600052601160045260246000fd5b600181815b808511156113f2578160001904821115611a2657611a266119ef565b80851615611a3357918102915b93841c9390800290611a0a565b600082611a4f5750600161045e565b81611a5c5750600061045e565b8160018114611a725760028114611a7c57611a98565b600191505061045e565b60ff841115611a8d57611a8d6119ef565b50506001821b61045e565b5060208310610133831016604e8410600b8410161715611abb575081810a61045e565b611ac58383611a05565b8060001904821115611ad957611ad96119ef565b029392505050565b60006104c660ff841683611a40565b8082018082111561045e5761045e6119ef565b8181038181111561045e5761045e6119ef565b634e487b7160e01b600052601260045260246000fd5b600082611b4957634e487b7160e01b600052601260045260246000fd5b500490565b808202811582820484141761045e5761045e6119ef565b634e487b7160e01b600052603260045260246000fd5b634e487b7160e01b600052603160045260246000fd5b6001600160e01b03828116828216818102831692918115828504821417611bba57611bba6119ef565b5050509291505056fea26469706673582212209d914de35d3276112d7cbc3d5877c3fb599447cf32531c851dda5045ce1f7b0c64736f6c63430008150033",
    "linkReferences": {}
  },
  "methodIdentifiers": {
    "DENOMINATOR()": "918f8674",
    "TAX_FEE()": "d07c9c81",
    "allowance(address,address)": "dd62ed3e",
    "approve(address,uint256)": "095ea7b3",
    "balanceOf(address)": "70a08231",
    "decimals()": "313ce567",
    "decreaseAllowance(address,uint256)": "a457c2d7",
    "excludeAccount(address)": "f2cc0c18",
    "getEarningFactor()": "e0689e70",
    "getEffectiveTotal()": "f3520b5e",
    "getSnapshot(address)": "21570256",
    "includeAccount(address)": "f84354f1",
    "increaseAllowance(address,uint256)": "39509351",
    "name()": "06fdde03",
    "owner()": "8da5cb5b",
    "renounceOwnership()": "715018a6",
    "symbol()": "95d89b41",
    "totalSupply()": "18160ddd",
    "transfer(address,uint256)": "a9059cbb",
    "transferFrom(address,address,uint256)": "23b872dd",
    "transferOwnership(address)": "f2fde38b"
  },
  "id": 0
}